{
  "contractName": "Voting",
  "abi": [
    {
      "inputs": [
        {
          "internalType": "string",
          "name": "_name",
          "type": "string"
        }
      ],
      "stateMutability": "nonpayable",
      "type": "constructor"
    },
    {
      "anonymous": false,
      "inputs": [
        {
          "indexed": false,
          "internalType": "address",
          "name": "voter",
          "type": "address"
        },
        {
          "indexed": false,
          "internalType": "uint256",
          "name": "candidateId",
          "type": "uint256"
        }
      ],
      "name": "VoteCast",
      "type": "event"
    },
    {
      "inputs": [
        {
          "internalType": "uint256",
          "name": "",
          "type": "uint256"
        }
      ],
      "name": "candidates",
      "outputs": [
        {
          "internalType": "uint256",
          "name": "id",
          "type": "uint256"
        },
        {
          "internalType": "string",
          "name": "name",
          "type": "string"
        },
        {
          "internalType": "uint256",
          "name": "voteCount",
          "type": "uint256"
        }
      ],
      "stateMutability": "view",
      "type": "function",
      "constant": true
    },
    {
      "inputs": [],
      "name": "candidatesCount",
      "outputs": [
        {
          "internalType": "uint256",
          "name": "",
          "type": "uint256"
        }
      ],
      "stateMutability": "view",
      "type": "function",
      "constant": true
    },
    {
      "inputs": [],
      "name": "electionName",
      "outputs": [
        {
          "internalType": "string",
          "name": "",
          "type": "string"
        }
      ],
      "stateMutability": "view",
      "type": "function",
      "constant": true
    },
    {
      "inputs": [],
      "name": "owner",
      "outputs": [
        {
          "internalType": "address",
          "name": "",
          "type": "address"
        }
      ],
      "stateMutability": "view",
      "type": "function",
      "constant": true
    },
    {
      "inputs": [
        {
          "internalType": "address",
          "name": "",
          "type": "address"
        }
      ],
      "name": "voters",
      "outputs": [
        {
          "internalType": "bool",
          "name": "hasVoted",
          "type": "bool"
        },
        {
          "internalType": "uint256",
          "name": "votedCandidateId",
          "type": "uint256"
        }
      ],
      "stateMutability": "view",
      "type": "function",
      "constant": true
    },
    {
      "inputs": [
        {
          "internalType": "string",
          "name": "_name",
          "type": "string"
        }
      ],
      "name": "addCandidate",
      "outputs": [],
      "stateMutability": "nonpayable",
      "type": "function"
    },
    {
      "inputs": [
        {
          "internalType": "uint256",
          "name": "_candidateId",
          "type": "uint256"
        }
      ],
      "name": "vote",
      "outputs": [],
      "stateMutability": "nonpayable",
      "type": "function"
    },
    {
      "inputs": [
        {
          "internalType": "uint256",
          "name": "_candidateId",
          "type": "uint256"
        }
      ],
      "name": "getVoteCount",
      "outputs": [
        {
          "internalType": "uint256",
          "name": "",
          "type": "uint256"
        }
      ],
      "stateMutability": "view",
      "type": "function",
      "constant": true
    }
  ],
  "bytecode": "0x60806040523480156200001157600080fd5b50604051620010d7380380620010d78339818101604052810190620000379190620001b9565b336000806101000a81548173ffffffffffffffffffffffffffffffffffffffff021916908373ffffffffffffffffffffffffffffffffffffffff16021790555080600190805190602001906200008f92919062000097565b50506200032f565b828054620000a5906200029b565b90600052602060002090601f016020900481019282620000c9576000855562000115565b82601f10620000e457805160ff191683800117855562000115565b8280016001018555821562000115579182015b8281111562000114578251825591602001919060010190620000f7565b5b50905062000124919062000128565b5090565b5b808211156200014357600081600090555060010162000129565b5090565b60006200015e620001588462000232565b620001fe565b9050828152602081018484840111156200017757600080fd5b6200018484828562000265565b509392505050565b600082601f8301126200019e57600080fd5b8151620001b084826020860162000147565b91505092915050565b600060208284031215620001cc57600080fd5b600082015167ffffffffffffffff811115620001e757600080fd5b620001f5848285016200018c565b91505092915050565b6000604051905081810181811067ffffffffffffffff8211171562000228576200022762000300565b5b8060405250919050565b600067ffffffffffffffff82111562000250576200024f62000300565b5b601f19601f8301169050602081019050919050565b60005b838110156200028557808201518184015260208101905062000268565b8381111562000295576000848401525b50505050565b60006002820490506001821680620002b457607f821691505b60208210811415620002cb57620002ca620002d1565b5b50919050565b7f4e487b7100000000000000000000000000000000000000000000000000000000600052602260045260246000fd5b7f4e487b7100000000000000000000000000000000000000000000000000000000600052604160045260246000fd5b610d98806200033f6000396000f3fe608060405234801561001057600080fd5b50600436106100885760003560e01c806385e8e7a71161005b57806385e8e7a7146101155780638da5cb5b14610133578063a3ec138d14610151578063b2c2f2e81461018257610088565b80630121b93f1461008d5780632d35a8a2146100a95780633477ee2e146100c7578063462e91ec146100f9575b600080fd5b6100a760048036038101906100a29190610857565b6101b2565b005b6100b161039d565b6040516100be9190610abb565b60405180910390f35b6100e160048036038101906100dc9190610857565b6103a3565b6040516100f093929190610ad6565b60405180910390f35b610113600480360381019061010e9190610816565b610455565b005b61011d610565565b60405161012a9190610a39565b60405180910390f35b61013b6105f3565b60405161014891906109cc565b60405180910390f35b61016b600480360381019061016691906107ed565b610617565b604051610179929190610a10565b60405180910390f35b61019c60048036038101906101979190610857565b610648565b6040516101a99190610abb565b60405180910390f35b600360003373ffffffffffffffffffffffffffffffffffffffff1673ffffffffffffffffffffffffffffffffffffffff16815260200190815260200160002060000160009054906101000a900460ff1615610242576040517f08c379a000000000000000000000000000000000000000000000000000000000815260040161023990610a9b565b60405180910390fd5b60008111801561025457506004548111155b610293576040517f08c379a000000000000000000000000000000000000000000000000000000000815260040161028a90610a7b565b60405180910390fd5b6001600360003373ffffffffffffffffffffffffffffffffffffffff1673ffffffffffffffffffffffffffffffffffffffff16815260200190815260200160002060000160006101000a81548160ff02191690831515021790555080600360003373ffffffffffffffffffffffffffffffffffffffff1673ffffffffffffffffffffffffffffffffffffffff1681526020019081526020016000206001018190555060026000828152602001908152602001600020600201600081548092919061035c90610c4d565b91905055507fa36cc2bebb74db33e9f88110a07ef56e1b31b24b4c4f51b54b1664266e29f45b33826040516103929291906109e7565b60405180910390a150565b60045481565b60026020528060005260406000206000915090508060000154908060010180546103cc90610c1b565b80601f01602080910402602001604051908101604052809291908181526020018280546103f890610c1b565b80156104455780601f1061041a57610100808354040283529160200191610445565b820191906000526020600020905b81548152906001019060200180831161042857829003601f168201915b5050505050908060020154905083565b60008054906101000a900473ffffffffffffffffffffffffffffffffffffffff1673ffffffffffffffffffffffffffffffffffffffff163373ffffffffffffffffffffffffffffffffffffffff16146104e3576040517f08c379a00000000000000000000000000000000000000000000000000000000081526004016104da90610a5b565b60405180910390fd5b600460008154809291906104f690610c4d565b91905055506040518060600160405280600454815260200182815260200160008152506002600060045481526020019081526020016000206000820151816000015560208201518160010190805190602001906105549291906106b8565b506040820151816002015590505050565b6001805461057290610c1b565b80601f016020809104026020016040519081016040528092919081815260200182805461059e90610c1b565b80156105eb5780601f106105c0576101008083540402835291602001916105eb565b820191906000526020600020905b8154815290600101906020018083116105ce57829003601f168201915b505050505081565b60008054906101000a900473ffffffffffffffffffffffffffffffffffffffff1681565b60036020528060005260406000206000915090508060000160009054906101000a900460ff16908060010154905082565b6000808211801561065b57506004548211155b61069a576040517f08c379a000000000000000000000000000000000000000000000000000000000815260040161069190610a7b565b60405180910390fd5b60026000838152602001908152602001600020600201549050919050565b8280546106c490610c1b565b90600052602060002090601f0160209004810192826106e6576000855561072d565b82601f106106ff57805160ff191683800117855561072d565b8280016001018555821561072d579182015b8281111561072c578251825591602001919060010190610711565b5b50905061073a919061073e565b5090565b5b8082111561075757600081600090555060010161073f565b5090565b600061076e61076984610b45565b610b14565b90508281526020810184848401111561078657600080fd5b610791848285610bd9565b509392505050565b6000813590506107a881610d34565b92915050565b600082601f8301126107bf57600080fd5b81356107cf84826020860161075b565b91505092915050565b6000813590506107e781610d4b565b92915050565b6000602082840312156107ff57600080fd5b600061080d84828501610799565b91505092915050565b60006020828403121561082857600080fd5b600082013567ffffffffffffffff81111561084257600080fd5b61084e848285016107ae565b91505092915050565b60006020828403121561086957600080fd5b6000610877848285016107d8565b91505092915050565b61088981610b91565b82525050565b61089881610ba3565b82525050565b60006108a982610b75565b6108b38185610b80565b93506108c3818560208601610be8565b6108cc81610d23565b840191505092915050565b60006108e4602183610b80565b91507f4f6e6c7920746865206f776e65722063616e206164642063616e64696461746560008301527f73000000000000000000000000000000000000000000000000000000000000006020830152604082019050919050565b600061094a601483610b80565b91507f496e76616c69642063616e6469646174652049440000000000000000000000006000830152602082019050919050565b600061098a601683610b80565b91507f596f75206861766520616c726561647920766f746564000000000000000000006000830152602082019050919050565b6109c681610bcf565b82525050565b60006020820190506109e16000830184610880565b92915050565b60006040820190506109fc6000830185610880565b610a0960208301846109bd565b9392505050565b6000604082019050610a25600083018561088f565b610a3260208301846109bd565b9392505050565b60006020820190508181036000830152610a53818461089e565b905092915050565b60006020820190508181036000830152610a74816108d7565b9050919050565b60006020820190508181036000830152610a948161093d565b9050919050565b60006020820190508181036000830152610ab48161097d565b9050919050565b6000602082019050610ad060008301846109bd565b92915050565b6000606082019050610aeb60008301866109bd565b8181036020830152610afd818561089e565b9050610b0c60408301846109bd565b949350505050565b6000604051905081810181811067ffffffffffffffff82111715610b3b57610b3a610cf4565b5b8060405250919050565b600067ffffffffffffffff821115610b6057610b5f610cf4565b5b601f19601f8301169050602081019050919050565b600081519050919050565b600082825260208201905092915050565b6000610b9c82610baf565b9050919050565b60008115159050919050565b600073ffffffffffffffffffffffffffffffffffffffff82169050919050565b6000819050919050565b82818337600083830152505050565b60005b83811015610c06578082015181840152602081019050610beb565b83811115610c15576000848401525b50505050565b60006002820490506001821680610c3357607f821691505b60208210811415610c4757610c46610cc5565b5b50919050565b6000610c5882610bcf565b91507fffffffffffffffffffffffffffffffffffffffffffffffffffffffffffffffff821415610c8b57610c8a610c96565b5b600182019050919050565b7f4e487b7100000000000000000000000000000000000000000000000000000000600052601160045260246000fd5b7f4e487b7100000000000000000000000000000000000000000000000000000000600052602260045260246000fd5b7f4e487b7100000000000000000000000000000000000000000000000000000000600052604160045260246000fd5b6000601f19601f8301169050919050565b610d3d81610b91565b8114610d4857600080fd5b50565b610d5481610bcf565b8114610d5f57600080fd5b5056fea2646970667358221220e3439f85b3cd25d74a863bccf736420ec72d4feb3f1c88c67ccca23856f96e4564736f6c63430008000033",
  "immutableReferences": {},
  "source": "// SPDX-License-Identifier: MIT\r\npragma solidity ^0.8.0;\r\n\r\ncontract Voting {\r\n    struct Candidate {\r\n        uint id;\r\n        string name;\r\n        uint voteCount;\r\n    }\r\n\r\n    struct Voter {\r\n        bool hasVoted;\r\n        uint votedCandidateId;\r\n    }\r\n\r\n    address public owner;\r\n    string public electionName;\r\n    mapping(uint => Candidate) public candidates;\r\n    mapping(address => Voter) public voters;\r\n    uint public candidatesCount;\r\n\r\n    event VoteCast(address voter, uint candidateId);\r\n\r\n    constructor(string memory _name) {\r\n        owner = msg.sender;\r\n        electionName = _name;\r\n    }\r\n\r\n    function addCandidate(string memory _name) public {\r\n        require(msg.sender == owner, \"Only the owner can add candidates\");\r\n        candidatesCount++;\r\n        candidates[candidatesCount] = Candidate(candidatesCount, _name, 0);\r\n    }\r\n\r\n    function vote(uint _candidateId) public {\r\n        require(!voters[msg.sender].hasVoted, \"You have already voted\");\r\n        require(_candidateId > 0 && _candidateId <= candidatesCount, \"Invalid candidate ID\");\r\n\r\n        voters[msg.sender].hasVoted = true;\r\n        voters[msg.sender].votedCandidateId = _candidateId;\r\n        candidates[_candidateId].voteCount++;\r\n\r\n        emit VoteCast(msg.sender, _candidateId);\r\n    }\r\n\r\n    function getVoteCount(uint _candidateId) public view returns (uint) {\r\n        require(_candidateId > 0 && _candidateId <= candidatesCount, \"Invalid candidate ID\");\r\n        return candidates[_candidateId].voteCount;\r\n    }\r\n}",
  "sourcePath": "C:\\Users\\soula\\OneDrive\\Bureau\\decentralized voting system project\\contracts\\Voting.sol",
  "compiler": {
    "name": "solc",
    "version": "0.8.0+commit.c7dfd78e.Emscripten.clang"
  },
  "schemaVersion": "3.4.16",
  "updatedAt": "2024-07-23T19:02:01.628Z",
  "networkType": "ethereum",
  "devdoc": {
    "kind": "dev",
    "methods": {},
    "version": 1
  },
  "userdoc": {
    "kind": "user",
    "methods": {},
    "version": 1
  }
}